:020000040000fa
:080000000002040000000000f2
:020000040000fa
:100008001e0700001e0700001e0700001e07000054
:100018001e0700001e0700001e0700001e07000044
:100028001e0700001e0700001e0700009c140000a9
:100038001e0700001e0700001e070000e81400004d
:10004800be1500001e0700001e0700001e07000066
:100058001e070000d80200001e0700001e0700004f
:100068001e0700001e0700001e0700004a180000b7
:100078001e0700001e0700001e0700001e070000e4
:100088001e0700001e0700001e07000022150000c2
:100098003a1500001e0700001e0700001e0700009a
:1000a8001e0700001e0700001e0700001e070000b4
:1000b8001e0700001e0700001e0700001e070000a4
:1000c8001e0700001e0700001e0700001e07000094
:1000d8001e0700001e0700001e0700001e07000084
:1000e8001e0700001e0700001e0700001e07000074
:1000f8001e0700001e0700001e0700001e07000064
:100108001e0700001e0700001e0700001e07000053
:100118001e0700001e0700001e0700001e07000043
:100128001e0700001e0700001e0700001e07000033
:100138001e0700001e0700001e0700001e07000023
:100148001e0700001e0700001e0700001e07000013
:100158001e0700001e0700001e0700001e07000003
:100168001e0700001e0700001e0700001e070000f3
:100178001e0700001e0700001e0700001e070000e3
:100188001e0700001e0700001e0700001e070000d3
:100198001e0700001e0700001e0700001e070000c3
:1001a8001e0700001e0700001e0700001e070000b3
:1001b8001e0700001e0700001e0700001e070000a3
:1001c8001e0700001e0700001e0700001e07000093
:1001d8001e0700001e0700001e0700001e07000083
:1001e8001e0700001e0700001e0700001e07000073
:0801f8001e0700001e070000b5
:020000040000fa
:100208001e0700001e0700001e0700001e07000052
:100218001e0700001e0700001e0700001e07000042
:100228001e0700001e0700001e0700009c140000a7
:100238001e0700001e0700001e070000e81400004b
:10024800be1500001e0700001e0700001e07000064
:100258001e070000d80200001e0700001e0700004d
:100268001e0700001e0700001e0700004a180000b5
:100278001e0700001e0700001e0700001e070000e2
:100288001e0700001e0700001e07000022150000c0
:100298003a1500001e0700001e0700001e07000098
:1002a8001e0700001e0700001e0700001e070000b2
:1002b8001e0700001e0700001e0700001e070000a2
:1002c8001e0700001e0700001e0700001e07000092
:1002d8001e0700001e0700001e0700001e07000082
:1002e8001e0700001e0700001e0700001e07000072
:1002f8001e0700001e0700001e0700001e07000062
:100308001e0700001e0700001e0700001e07000051
:100318001e0700001e0700001e0700001e07000041
:100328001e0700001e0700001e0700001e07000031
:100338001e0700001e0700001e0700001e07000021
:100348001e0700001e0700001e0700001e07000011
:100358001e0700001e0700001e0700001e07000001
:100368001e0700001e0700001e0700001e070000f1
:100378001e0700001e0700001e0700001e070000e1
:100388001e0700001e0700001e0700001e070000d1
:100398001e0700001e0700001e0700001e070000c1
:1003a8001e0700001e0700001e0700001e070000b1
:1003b8001e0700001e0700001e0700001e070000a1
:1003c8001e0700001e0700001e0700001e07000091
:1003d8001e0700001e0700001e0700001e07000081
:1003e8001e0700001e0700001e0700001e07000071
:0803f8001e0700001e070000b3
:020000040000fa
:100400006f8d20000e7f22000e018800000000008a
:1004100000012000200288000c000700e085210078
:100420000100200011000700000020000000e00093
:10043000020032000000020000000000980b0200e1
:10044000000000000040da000000fe004440a90067
:10045000201220000000e000030032000000200015
:10046000a00188004440a800000006009101880017
:10047000800078000000eb0015003700e2804000ab
:1004800032a0b4009101ba00e280400032a0b40072
:100490009102ba00e280400032a0b4000002eb00fa
:1004a000472bde00f507b200602ce10004003a00a3
:1004b0000059eb008301e900fdff3e000400370016
:1004c0006128e100010032000082eb000400070017
:1004d0001101ba000200e000e8ff3a000000060047
:1004e0003159ba008301e9000c0032002159ba00e9
:1004f0008301e900080032000400e00003003a0034
:10050000e280400032a0b400f5ff370011d9ba00f4
:100510008301e900faff3a008100e800e180400031
:1005200032a0b4000000060000000000000000003f
:1005300000000000000000000000000000000000bb
:1005400000000000000000000000000000000000ab
:10055000000000000000000000000000000000009b
:10056000000000000000000000000000000000008b
:10057000000000000000000000000000000000007b
:10058000000000000000000000000000000000006b
:10059000000000000000000000000000000000005b
:1005a000000000000000000000000000000000004b
:1005b0003400f800881f780008002000a801880097
:1005c0004f0478000000fa0085a0a9000080fa001e
:1005d0003400f900004006000000fa000400220088
:1005e00004198800047d2e00641988000400260088
:1005f0001419880014f02100241988000408280028
:10060000441988000002eb0084198800540580001a
:100610000440a0005405880085a0a9000080fa00cd
:10062000000006000200fa000042eb0004407800df
:10063000d4e8b7003c003700448d20001442780015
:100640000482fb00cfa2de0046002000070020004d
:10065000860f5200878f5a0014003e00046001008c
:100660000400370006003700080037000a00370092
:100670000c00370024082800441988000b003700bc
:10068000340828004419880008003700540828005e
:100690004419880005003700b40828004419880070
:1006a00002003700c40828004419880044002000d4
:1006b0008419880021e3a8002023a80000c2eb00d1
:1006c000044f78001e4fe9001e427800e04f5200b0
:1006d000fcff3a002023a90000000000041980005c
:1006e00061026200e00f5200fcff3200448d2000e6
:1006f000144278000482fb00051880007404b000e6
:10070000040342008483200004024300050a7800a9
:1007100021e3a900448d2000144278000442e8003f
:1007200004407800d4e8b700448d200014427800db
:10073000e54f5200c0ff3a000080fa0000000600ba
:100740000400fa0054468000040f7800b42420000e
:100750009e027800848f52000300340084b8210088
:10076000c443880039003700c41420009e0278007a
:10077000848f520003003c0004fa2000c443880028
:10078000320037001e0278006c22b90004027800a3
:10079000c4438800c5438000c4e62e00048f420095
:1007a0001e02780044a2de00040f7800c4882000f6
:1007b000144278000442e800044078008ce8b70056
:1007c000c488200014427800674262000440780028
:1007d0008ce8b700c4882000144278000482fb0033
:1007e0002402b0008402420084832000048242007c
:1007f0001e0a78000042eb00244798000002eb003c
:10080000040f78000b0037002e4290000482fb009a
:100810002402b0008402420084832000048242004b
:10082000140278001e0f42002e4290000442e8009d
:10083000244798002e429000e84f5200f2ff3a0001
:100840001e02780043a2de00d44388000080fa0034
:10085000000006000200fa00048b20001442780019
:100860000442e80004407800b0e8b700048b2000a0
:10087000144278006f42620004407800b0e8b7008c
:1008800034468000040f7800f43f20001e0f620001
:10089000048b2000144278000482fb009e02780042
:1008a000c402b00004034200848320000402430019
:1008b000050a78000080fa00000006000400fa0033
:1008c0000002eb00040f78000042eb002447980080
:1008d0000b0037002e4290000482fb00c402b000df
:1008e00084024200848320000482420014027800c3
:1008f0001e0f42002e4290000442e8002447980058
:100900002e429000f04f5200f2ff3a001e02780093
:1009100044a2de007444880075448000f43f200047
:1009200004826200744488000080fa00000006001f
:100930000800fa004446800034079800be02900088
:1009400044432000848f520003003400f43f200011
:100950003407980006003700be02900074032000a0
:10096000848f520002003c000002eb003407980024
:1009700004862000144278000442e8000440780015
:1009800060e8b70004862000144278006f426200dd
:100990000440780060e8b700048620001442780024
:1009a0000482fb006402420084024200848320002f
:1009b00004824200be029000050a78000042eb006b
:1009c000444798006022b800048fbe000d00370035
:1009d0004e4290000482fb00640242008402420006
:1009e000848320000482420014027800cfa2de003b
:1009f0001e0f42005e974a004e4290000442e800fb
:100a0000444798004e429000f04f5200f0ff3a00e9
:100a10001e02be004c2bdd004422de0004027300e7
:100a2000c4aade00048fbe001e027800f4418800d4
:100a30000080fa00000006000a00fa00881f780013
:100a400074468000040f7800843a20009e027800eb
:100a5000848f52000500340004002000051a2c0089
:100a6000144388002543880099003700240820009b
:100a70009e027800848f520005003c000400200094
:100a8000652924001443880025438800900037001e
:100a90001e027800cfa2de000400be009c01070009
:100aa0000002be0034079800450798003433230045
:100ab000f52c24001407980025079800a2df2e00cb
:100ac000b3e82b003e009000ce009000d10107005b
:100ad0000002be000401be001e009000ae009000a7
:100ae000d90007000002be001407980025079800ef
:100af0003e019000ce0190003e009000ce0090009c
:100b0000c40107000002be0052ca2700d39a230086
:100b10000400be00bf0107000002be000401be00c9
:100b20001e009000ae009000c70007000002be004b
:100b300014079800250798003e019000ce01900010
:100b40003e009000ce009000b20107000002be00ff
:100b50003e019000ce0190000400be00ad010700f0
:100b60000002be00e25a2100d3442b000400be0064
:100b7000a80107000002be000401be001e00900094
:100b8000ae009000b00007000002be0014079800fd
:100b90002507980018c0b300020020006329240034
:100ba0001e009000ae009000570107000002780080
:100bb000e00f520001003c000044eb0008427800c6
:100bc0000404a200e04f52004100320018c0b300fc
:100bd00002002000031a2c001e009000ae009000be
:100be0004701070000027800e00f520001003500c5
:100bf0000044eb00084278000404a200e04f5200d9
:100c00003300320064872000144278000442e80078
:100c10000440780076e8b70064872000144278002a
:100c2000634262000440780076e8b70064872000e1
:100c3000144278000482fb00c222dd00648620009a
:100c4000048242001e039000ae039000068abe009c
:100c50000002eb00040f78006022b800140798002f
:100c6000250798000f0037001e0278004222dd00a1
:100c7000e502200084824200848320000482420036
:100c80001402be000401be001e009000ae009000e1
:100c90006d0007000002be001407980025079800a9
:100ca0001e0fe8001e027800e40f5200eeff3a002b
:100cb00002002000030824001e009000ae009000f7
:100cc000be0007000002be001443880025438800d0
:100cd0004f0478000080fa00000006000800fa00c7
:100ce000644680000500200024079800350798001e
:100cf0002e039000be039000240d2000050020006c
:100d0000840f5300858f5b0003003400a40f200084
:100d10009445880047003700be029000d44620006a
:100d200004aab900040378002e0290006022b900e2
:100d30000402780004034300ae029000d446200071
:100d4000042ab800050343008602780024079800af
:100d50003507980024079800350798002e02900068
:100d6000be029000e00f5200e08f5a0002003d00ea
:100d7000f43fb0000580b0004628dd004a22de00c6
:100d800004027000caaade00240798003507980004
:100d9000448c2000144278000442e80004407800ab
:100da000c4e8b700448c2000144278006742620017
:100db00004407800c4e8b700448c20001442780056
:100dc0000482fb00ae029000e403b0000403420082
:100dd0008483200004024300050a78000042eb00ef
:100de000244798000002eb00040f78000b00370046
:100df0002e4290000482fb00e403b0008402420013
:100e00008483200004824200140278001e0f4200f6
:100e10002e4290000442e800244798002e429000a1
:100e2000e84f5200f2ff3a001e02780043a2de00b3
:100e3000944588000080fa00000006000040da00b7
:100e40000000fe0003f0a200889fbe008a9fbe0043
:100e50008c1f7800d7000700de0033006450e100eb
:100e60004f0032006420e1005200320003826c0027
:100e700007003b000905d0000306d000820f540094
:100e80000c065d0002003900020032008901780082
:100e9000030678008582550004003d000003fd0034
:100ea0008103fd008502ea008b854200840f7200f9
:100eb00002003b0060001000e08018006011b800e4
:100ec0000005eb007a28e1000a00390006007800ee
:100ed000c75ddd00f707b200878075002d00370081
:100ee000828171000a017800610560008180d10073
:100ef0000080d3008502e900f9ff3b0006044000b2
:100f00008784480002003b0060041400e0841c0059
:100f10000988a300070032008a8171008281710074
:100f2000610164008904d1000884d3008b05e800c6
:100f3000170037000978a30013003a000b00e00007
:100f4000130034008b05e9000804440089844c0038
:100f50000a4474000978a3000d003a000b00e00079
:100f6000070034008b05e9000804440089844c0024
:100f700001003a000b0020000978a300f7ff3200bf
:100f80000001eb0002003700828171000a01780045
:100f9000620007000cf0a70001f0a00096003700e7
:100fa0006420e10002003a00838f6c009600330059
:100fb0000801be000200be008f003700889fbe00ff
:100fc0008a9fbe008c1f78007a00070081003300e2
:100fd00003866c006450e1002e0032006420e100c2
:100fe000330032006150e1002f0032006120e10047
:100ff0003100320085855500eb07b0000900200064
:1010000008042000050037000804440089844c00cf
:101010000a0031000603430087834b0000015300a0
:1010200081815b00f8ff33000203be000800a000ce
:101030000804440089844c00f6ff3900c639dd00fd
:101040008301730001003200130020008904d100e5
:101050000884d3000998a300050032000800a70007
:101060000300a0008904d1000884d3008b05e800a8
:101070008904d1000884d3000001eb000281d20072
:101080002600070001f0a1000cf0a70001f0a0006d
:10109000590037006420e1005b0032000801be0007
:1010a0000200be00f7ff37006120e1005600320069
:1010b0006000b800f3ff37000000200001f82700af
:1010c000f0ff3700839f68000100e00002003d0050
:1010d00060001000e08018000300e00002003d0006
:1010e00060011100e08119007e0007004f00e00060
:1010f00002003b0060001000e080180000000600c5
:101100001400200087003700f4ff2f00850037000f
:101110004f89de00820178009d00370081002000a9
:10112000618055000b003d000b00200061fe2f0088
:101130000100e1001d003400828171006101640042
:101140008904d1000884d3000000e800faff3a00c7
:101150007100200061006400030070000200600064
:101160000900320061044400e0844c000988a500b5
:10117000050032008b05e8006808e10002003a0033
:101180008904d1000884d300f20f20000258e10046
:1011900005003d00c75ddd00f907b20089807500dc
:1011a00008007800000006000bf827008b0078008c
:1011b000000005000004be00b40007000003be00ec
:1011c0000405be000200be00b0000700844f750099
:1011d000000006000200be006450e1000500360079
:1011e0006420e100020036000968a30001003a0013
:1011f0000800be000160a0004f0678004f05be0049
:101200004f04be0000000600f0ff2f00f1ff270092
:10121000f9ff3700889fbe008a9fbe008c1f7800b0
:10122000e4ff0700ebff330003866c006450e1002d
:10123000240032006420e100270032006150e10008
:10124000220032006120e100210032008b85420043
:10125000eb07b1000134b800003ab80008044200be
:1012600089844a00013ab8000030b8008880400004
:1012700009014a000400330000004000818048005a
:10128000020149008b05e900c909dd0083017000f6
:101290000100320013002000c814de004814dd00f5
:1012a0004709de001200b200c808de0008847000a2
:1012b0009aff070001f0a1000cf0a70001f0a000c8
:1012c000cdff37006120e100cfff32000801be00f2
:1012d0000200be00f7ff37006150e100fcff3a005a
:1012e000c9ff37006022b800060220000000d000cd
:1012f0008180d2000482d2008582d2000000a0004a
:101300000202520083825a000300310002024200ae
:1013100083824a000000a1000603e900f3ff3a00bf
:1013200000000600889fbe008a9fbe00841f7800d0
:10133000a0ff07004f00780011003300f0ff2f00de
:10134000838f6c0006003b00040565000a00a700bf
:101350000800370009f0a600100020000800370040
:10136000820f5400838f5c000300390010002000be
:1013700001003e000000200009f0a7000000ea0084
:101380004f05be004f04be000000e0000000060054
:10139000881f7800030478000300e00007003d0088
:1013a00060001000e080180060011900e081190061
:1013b00002003b0001f02d0003003700040007008d
:1013c00008f0a70001f0a0004f047800000006001c
:1013d000889fbe008a9fbe000082700004027100d8
:1013e00004827100260032000004be000200be002c
:1013f0006011b8006b092000950220000182cf0027
:101400000a0039000541b1000082cf000700390011
:101410000541b1000982cf00040039000541b10047
:101420000882cf00010039000541b1000542520099
:10143000120032000a003b008281710061016400e9
:101440008100d1000080d3008984d3000884d300b8
:101450008b05e8000442e800f7ff3a000700370078
:101460000804440089844c00000048008180480042
:101470008b05e9000442e900f9ff3a0027ff070065
:101480004f05be004f04be0000000600c70ade0084
:10149000f107b200f50fb20008003200e1cf4200c0
:1014a000020032000170a00024000500810f7000ce
:1014b000010032000408050044000500810f70009f
:1014c00002003a00140005008502e9000000400017
:1014d00081c04800fcff3b000170a0002400050013
:020000040000fa
:1014e000fa0000000000000093010000000000006e
:1014f0002c02000000000000c602000000000000f6
:101500005f03000000000000f8030000000000007e
:1015100091040000000000002b0500000000000006
:10152000c4050000000000005d060000000000008f
:10153000f6060000000000008f0700000000000019
:101540002908000000000000c208000000000000a0
:101550005b09000000000000f4090000000000002a
:101560008e0a000000000000270b000000000000b1
:10157000c00b000000000000590c0000000000003b
:10158000f30c0000000000008c0d000000000000c3
:10159000250e000000000000be0e0000000000004c
:1015a000570f000000000000f10f000000000000d5
:1015b0008a1000000000000023110000000000005d
:1015c000bc110000000000005612000000000000e6
:1015d000ef1200000000000088130000000000006f
:1015e000320000002100000019000000140000007b
:1015f0000a000000080000000600000005000000ce
:1016000004000000020000000100000000000000d3
:10161000000000001e0000000000000000000000ac
:1016200000000000d80e0000000000001e000000b6
:10163000000000005300000000000000d80e000071
:10164000000000001c250000000000005300000006
:1016500000000000db000000000000001c2500006e
:1016600000000000409c000000000000db000000c3
:10167000000000006c01000000000000409c000021
:1016800000000000a0860000010000006c010000c6
:10169000000000000b02000000000000a086000017
:1016a00001000000400d000003000000fc0b0000e2
:1016b0002c0c0000420c00006a0c0000de0c000044
:1016c000400d00007e0d0000b00d00009a0d0000de
:1016d000440e0000e20d0000000e0000c40d0000ea
:1016e000080e0000260e0000920b0000920b000076
:1016f0004a1000004a1000004a1000004a10000082
:101700004a100000920b0000920b0000920b0000a8
:10171000920b0000920b0000920b0000920b000055
:04172000920b000028
:020000040000fa
:101724000000fa000080fa00000006000000fa0041
:1017340057010700a1030700a6fb07009a01070051
:101744000002eb0064418800dd03070024812000cf
:1017540014427800e04f520010003a0004c3b30072
:101764000440780012e8b700348120001442780065
:10177400e14f520005003a000042eb0004407800bb
:1017840013e8b700c482a9000400370014c0b300f2
:101794000440780013e8b700c482a8002480200025
:1017a40014427800e04f520004003a009cfb07000a
:1017b40064c0b3000440780002e8b70064418000cc
:1017c4008402420044b728000482420014027800d4
:1017d40004000100644180008402420064b52800d2
:1017e400048242001402780004000100ff0507008f
:1017f400d5ff37000000fa000042eb0004407800f7
:1018040037e8b7000040eb00030607005203070067
:10181400cd040700f40f2000d4408800a4c0b30016
:101824000440780032e8b70024032000a441880073
:1018340084ccb3000440780033e8b70014002000df
:10184400644188000002eb00744188000080fa00c3
:10185400000006000000fa002483200014427800ef
:10186400e04f520004003a00240020006441880044
:1018740014002000744188000080fa000000060073
:101884000000fa00d4438000e40f520005003c003d
:10189400b4002000644188002400200074418800c2
:1018a400090037003400200064418800240020002f
:1018b40074418800f40020008440880034c0b300e0
:1018c400044078002be8b7000080fa00000006000e
:1018d4000000fa0014438000254380000200200029
:1018e400632924000400be0004fe070000027800ff
:1018f400e00f5200090032001443800025438000a9
:1019040002002000031a2c000400be00fbfd0700a7
:1019140000027800e00f520003003a00d4002000d7
:101924006441880022003700f5418000f43f200024
:10193400848f520003003200f4418000e00f520013
:1019440003003a00e40020006441880018003700d6
:1019540084408000e00f520014003a00f5418000fa
:1019640024352000848f52000d003400f54180009e
:10197400143f2000848f520009003c00d801070066
:101984004400200064418800340020007441880031
:10199400f4002000844088000000000004003700a8
:1019a400e4002000644188000100370000000000ca
:1019b4000080fa00000006000000fa00f5418000f3
:1019c400f43f2000848f520003003200f441800071
:1019d400e00f520005003a00e40020006441880052
:1019e40044002000744188002200370084408000b5
:1019f400e00f52001e003a00c201070000427800c6
:101a0400e04f520015003a00b482200014427800de
:101a1400e04f52000c003200b482200014427800df
:101a24000442e900044078002be8b700f4002000e9
:101a34008440880034002000644188004400200071
:101a4400744188000b003700e400200064418800e2
:101a54004400200074418800060037005400200030
:101a6400644188004400200074418800010037006c
:101a7400000000000080fa00000006000000fa00e8
:101a8400d4438000e00f520005003c00c400200055
:101a94006441880054002000744188001400370019
:101aa400a440800061026200e00f52001000320086
:101ab400b480200014427800e04f52000c003a0039
:101ac40054c0b3000440780032e8b7002403200077
:101ad400a441880084ccb3000440780033e8b70004
:101ae4006400200064418800540020007441880090
:101af4000080fa00000006000000fa0024832000a1
:101b040014427800e04f520007003a0054002000cd
:101b140064418800640020007441880064c9b300f3
:101b2400044078000be8b7000080fa0000000600cb
:101b34000000fa002483200014427800e04f520091
:101b440004003a00740020006441880084002000ee
:101b5400744188000080fa00000006000000fa00ca
:101b640010c0b3002c050700f70307009400200001
:101b74006441880074002000744188000080fa00e9
:101b8400000006000000fa0034c0b30004407800ee
:101b940032e8b70044062000a441880084ccb30096
:101ba4000440780033e8b7008400200064418800d2
:101bb400c4002000744188000080fa000000060080
:101bc4000000fa0034c0b3000440780032e8b700e3
:101bd40024032000a441880084ccb300044078008e
:101be40033e8b7008400200064418800b40020007a
:101bf400744188000080fa00000006000000fa002a
:101c0400efff07000080fa00000006000000fa0061
:101c140014c0b3000440780032e8b7002403200065
:101c2400a441880084ccb3000440780033e8b700b2
:101c34008400200064418800d4002000744188009e
:101c44000080fa00000006000000fa00a4c1b300fe
:101c54000440780032e8b70024032000a44188003f
:101c640084ccb3000440780033e8b700840020003b
:101c740064418800e4002000744188000080fa0078
:101c8400000006000000fa000080fa0000000600d0
:101c94000000fa000082eb00641988000002eb00e7
:101ca400043a880004902100243a8800c002a80065
:101cb400c022a800c042a800c062a900c082a90036
:101cc400c802a800c822a800c842a900c862a80087
:101cd400c882a800c8a2a800c8c2a800c8e2a90077
:101ce400c902a900c922a900c942a900c962a90060
:101cf400c982a800c9a2a800c9c2a900c9e2a90052
:101d0400641680004f22de000442780004c2ea0018
:101d1400614262000482fb004f22dd0066168000ef
:101d2400f5ff2700850263000482720064168800b0
:101d3400641680004f22de000442780004c2ea00e8
:101d4400614262000482fb004f22dd0066168000bf
:101d5400f5ff270085026300048272006416880080
:101d6400840c2000744088006800a800cdc2a8003c
:101d7400c482a900cde2a9000002eb00a4048800fb
:101d84000002eb00b40488000002eb00c4048800e5
:101d94000002eb00d40488000002eb00e404880095
:101da4000080fa00000006000000fa000400200091
:101db400851c240014438800254388000042eb005e
:101dc4000440780076e8b7000e00370064872000ee
:101dd400144278000482fb00c222dd0064862000e5
:101de4000483420004002000851c2400048bbe00f0
:101df40064872000144278000442e800044078001c
:101e040076e8b7006487200014427800e44f52005b
:101e1400eeff3a000042eb000440780076e8b70099
:101e240044992100c443880044062000d443880018
:101e34000042eb00044078008ce8b7000e00370045
:101e4400c4882000144278000482fb002402b000fd
:101e5400840242008483200004824200450620005c
:101e6400050a7800c4882000144278000442e8007f
:101e7400044078008ce8b700c4882000144278003d
:101e8400e84f5200eeff3a000042eb0004407800b5
:101e94008ce8b70044432000f44188000042eb0082
:101ea4000440780060e8b7000e0037000486200084
:101eb400144278000482fb0064024200840242005f
:101ec400848320000482420045432000050a7800f0
:101ed40004862000144278000442e800044078009c
:101ee40060e8b7000486200014427800f04f5200e6
:101ef400eeff3a000042eb000440780060e8b700cf
:101f040024032000744488000042eb00044078005d
:101f1400b0e8b7000e003700048b200014427800ac
:101f24000482fb00c402b0008402420084832000c7
:101f34000482420025032000050a7800048b200057
:101f4400144278000442e80004407800b0e8b70086
:101f5400048b200014427800f04f5200eeff3a0048
:101f64000002eb0074448800440620009445880075
:101f74000042eb0004407800c4e8b7000e003700cc
:101f8400448c2000144278000482fb00e403b00077
:101f9400840242008483200004824200450620001b
:101fa400050a7800448c2000144278000442e800ba
:101fb40004407800c4e8b700448c20001442780040
:101fc400e84f5200eeff3a000042eb000440780074
:101fd400c4e8b700042020003446880044432000ad
:101fe40044468800b424200054468800240d200070
:101ff40064468800843a2000744688000080fa0011
:10200400000006000000fa0054802000144278000a
:10201400e04f520006003a0044c1b3000440780087
:1020240005e8b70041fa07008b000700c500070068
:102034000080fa00000006000000fa00648020001e
:1020440014427800e04f520004003a0024c3b30065
:102054000440780006e8b700b8f907000080fa00e9
:10206400000006000000fa0084802000144278007a
:10207400e04f520004003a0044c6b3000440780024
:1020840008e8b7006bfa07000080fa0000000600b9
:102094000000fa00dbff0700e7ff0700f1ff07007d
:1020a400030007003a0107000080fa000000060060
:1020b4000000fa009480200014427800e04f52009f
:1020c40005003a00a4c0b3000440780009e8b70052
:1020d400dff90700f8f907000080fa0000000600a5
:1020e4000000fa00f4418000144188001443800089
:1020f40025438000f4408800054188000080fa00f0
:10210400000006000200fa00881f780014c0b30023
:10211400044f7800f541800014418000848f520000
:1021240008003400f541800014418000048252000c
:10213400e20f52000a0034000042eb00044f780022
:102144000700370015418000f441800004825200ea
:10215400e20f5200020034000042eb00044f78000a
:102164001643800027438000f4408000054180002e
:1021740018c0b3000401be000600be00e1fb070066
:1021840000027800e00f520001003c000044eb0024
:10219400e04f5400160032001643800027438000ad
:1021a400f4408000054180000401be000600be002a
:1021b40023fb07000002be0018c0b3000200200089
:1021c40003f823000400be00cefb070000027800e1
:1021d400e00f520001003c000044eb00e04f5400cb
:1021e400180032000042eb00044f7800150037005d
:1021f400f64080000741800014438000254380009e
:102204000401be000600be000dfb07000002be0074
:1022140018c0b3000200200003f823000400be002d
:10222400b8fb070000027800e00f520001003c00f8
:102234000044eb00e04f5400020032000042eb0087
:10224400044f78001e427800044078004f04780060
:102254000080fa00000006000c00fa00144180001f
:10226400e00f52003500320015418000f43f200099
:10227400848f520031003200843e2000050020008b
:10228400048fbe00f4418000cfa2de002407980032
:102294003507980014418000cfa2de00440798005f
:1022a400550798009e0290002e02900004aab900df
:1022b40004037800be0290001e02780004aab9004c
:1022c40004027800040343009e0278002e0290006a
:1022d400042ab8000503430086027800048fbe0078
:1022e400048fbe004e019000de0190001e00be006f
:1022f40073fb07000002be00048fbe00843e200072
:10230400050020001e1f52001e975a00843e200024
:10231400050020001e03be00840f5300858f5b0060
:1023240006003c001e02be00e00f5200e08f5a007f
:10233400020035001e027800c44188000080fa00c3
:10234400000006000600fa00889fbe00c441800019
:10235400cfa2de0014079800250798000042eb0086
:10236400044f78000d0037009e4278000582fb0080
:102374004422dd00e402420064b0280004824200ea
:102384001403be001e029000ae029000840f53009e
:10239400858f5b0005003c001e4fe8001e4278005c
:1023a400e54f5200f0ff3a00010037000000000042
:1023b4001e427800e54f5200640032009e427800cd
:1023c4000582fb004422dd00ec02420064b02800d8
:1023d400048242001403be009e4278000582fb0082
:1023e4004422dd00e802420064b028000482420076
:1023f4001402be000402530085825b001e03900099
:1024040005b3b900060078002e03900004b3b900a8
:102414000603780006004000040278009e02900043
:102424000523b80007004000800378009e4278002e
:102434000582fb004422dd00e802420064b028006b
:10244400048242001400be009e4278000582fb0014
:102454004422dd00e402420064b028000482420009
:102464001402be000489b9000201780000acb9006e
:10247400880178000301410000007800040278001c
:102484000402b800050141008202780006014200fe
:1024940087814a009e4278000582fb00c422dd0049
:1024a40064b02800048242001403be009e427800f7
:1024b4000582fb004422dd00ec02420064b02800e7
:1024c400048242001402be0004b8b900000078007f
:1024d40006acb900880078000100400006037800cb
:1024e400040278000432b80005004000800278003d
:1024f40004035100858359009e4278000582fb0045
:102504004422dd00e402420064b028000482420058
:102514001400be009e4278000582fb00c422dd0048
:1025240064b02800048242001402be000402500079
:10253400858258000401be000600be00e0fa0700d0
:102544000002be0024418800354188004f04be00cb
:102554000080fa00000006000000fa006022b800c3
:10256400d4418800e54188000002eb00c4418800a2
:1025740014418000f441880004002000851c2400dc
:10258400f4408800054188000080fa00000006003d
:102594000000fa00a480200014427800e04f5200aa
:1025a40004003a0044c1b300044078000ae8b700cc
:1025b400c9f907000080fa00000006000000fa00d4
:1025c4000002eb000408880004fa200014088800c4
:1025d400240880000440a1000450a10024088800bd
:1025e40005e1a80025058000040023000482720090
:1025f400240588009460a9000002eb0034088800d8
:102604000420200064088800840880000440a1009d
:102614000450a1008408880011e1a8000002eb0026
:102624005408880004202000740888001281a9003e
:1026340012a1a90013e1a80013a1a8004405800079
:102644000400a000440588009500a8000002eb00e7
:10265400a408880004712200d4088800f4088000cb
:102664000440a0000450a100f40888001fe1a80061
:10267400850580000400250004827200840588001a
:102684009760a8000002eb00c408880024a127007a
:10269400e4088800040980000440a0000450a0005d
:1026a4000409880021e1a800940580000400a0002a
:1026b400940588009780a8000080fa0000000600b6
:1026c4000000fa00b4408000e10f520097003a0085
:1026d4000002eb00b44088000060fe005416800045
:1026e40070026200e00f520013003a00a440800020
:1026f40068026200e00f52000f003a00644180005b
:10270400e50f52000c003a000483200014427800c4
:10271400e04f520006003200048320001442780087
:102724000442e9000440780030e8b70005003700af
:102734001468a8000300370054c0b30004407800b4
:1027440030e8b7002481200014427800e04f5200a2
:102754000500320024812000144278000442e9007c
:102764000440780012e8b700248020001442780066
:10277400e04f52000500320024802000144278000b
:102784000442e9000440780002e8b70034802000e5
:1027940014427800e04f52000500320034802000db
:1027a400144278000442e9000440780003e8b700ca
:1027b4004480200014427800e04f520005003200ab
:1027c40044802000144278000442e9000440780068
:1027d40004e8b7005480200014427800e04f52000f
:1027e4000500320054802000144278000442e900bd
:1027f4000440780005e8b7006480200014427800a3
:10280400e04f52000500320064802000144278003a
:102814000442e9000440780006e8b7007480200010
:1028240014427800e04f520005003200748020000a
:10283400144278000442e9000440780007e8b70035
:102844008480200014427800e04f520005003200da
:1028540084802000144278000442e9000440780097
:1028640008e8b700a480200014427800e04f52002a
:1028740005003200a4802000144278000442e900dc
:10288400044078000ae8b7009480200014427800dd
:10289400e04f52000500320094802000144278007a
:1028a4000442e9000440780009e8b700b48020003d
:1028b40014427800e04f520005003200b48020003a
:1028c400144278000442e900044078000be8b700a1
:1028d40074408000e00f5200040032007440800015
:1028e4000402e900744088001000370024832000ab
:1028f40014427800e04f52000c003200a4418000e2
:102904007440880034832000144278000440780026
:102914000ce8b70024832000144278000442e90044
:102924000440780032e8b7009460a8000080fa0000
:1029340000000600801f7800849fbe00861f780078
:102944003400f80000002000a00188000000fa0014
:10295400c480200014427800e04f5200120032007c
:10296400c4802000144278000442e9000440780046
:102974000ce8b700641680004f22de0004427800a1
:1029840004c2ea00614262000482fb004f22dd00bf
:1029940066168000f5ff270085026300048272003a
:1029a4006416880002003700cde2a9009460a900f3
:1029b4008460a9000080fa003400f9004f03780015
:1029c4004f02be004f00780000400600849fbe0006
:1029d4003400f80004002000a40188000000fa007c
:1029e400e5408000d440800004826200e00f520081
:1029f40003003200cdc2a800641680000200370034
:102a0400cdc2a90064168000e440800004024200a4
:102a1400e4408800e4408000e00f520003003a00e4
:102a2400e44080000400a000e440880084e0a900a1
:102a34000080fa003400f9004f02be000040060096
:102a4400841f78003400f80004002000a4018800ea
:102a54000000fa0014002000b44088008760a90038
:102a64000080fa003400f9004f02780000400600ac
:102a7400801f7800849fbe00861f78003400f80011
:102a840000002000a00188000000fa001808a80037
:102a9400a44080000402d1006142620004c2ea0042
:102aa400614262000482fb0061026200040242008f
:102ab400a6408000d5ff2f008502630004827200c7
:102ac400a4408800c44080000402d1006142620036
:102ad40004c2ea00614262000482fb0061026200f7
:102ae40004024200c6408000d5ff2f008502630027
:102af40004827200c440880084408000e00f5200c9
:102b04000a003200844080000402e9008440880006
:102b140064418000e30f520004003a00c4c3b300d0
:102b2400044078000ce8b7009460a8008780a900ee
:102b34000080fa003400f9004f0378004f02be0011
:102b44004f007800004006000000fa00cd42a900c2
:102b5400cd62a900cd02a900cd22a900cc42a900d2
:102b6400cce2a9000042eb000440780000e8b70082
:102b74000080fa0000000600801f7800849fbe00d9
:102b84003400f80000002000a00188000000fa00d2
:102b940094468000e00f520002003a001400200026
:102ba40094468800d44080008402780094468000d3
:102bb40004826200e00f520003003200cdc2a8007c
:102bc4006416800002003700cdc2a900641680009c
:102bd400944680000402420094468800cd42a90035
:102be400cd62a900cd02a900cd22a900cc42a90042
:102bf400cce2a900048d200014427800e04f52007a
:102c040003003a0014c0b30004407800d0e8b700d1
:102c14000580200095427800048d2000144278003d
:102c240004c262000482fb00e80f52002700320055
:102c3400e80f520007003c00e20f52002b00320064
:102c4400e40f520025003200e10f52002c00320044
:102c54002e00370005022000850f520013003200b9
:102c640005022000850f520003003c00f00f5200c3
:102c7400120032002500370005042000850f5200a1
:102c84000700320005082000850f52001f003a009b
:102c9400cc42a800cce2a800cd02a8001b0037005b
:102ca400cd02a800cd22a80018003700cd22a8002c
:102cb400cc42a800cd62a80014003700cd22a800a1
:102cc400cce2a800cd62a80010003700cc42a800d6
:102cd400cce2a800cd62a8000c003700cd22a800e9
:102ce400cc42a800cd42a80008003700cd22a8009d
:102cf400cce2a800cd42a800cd02a8000300370012
:102d0400cc42a800cce2a800cd42a800048d20004b
:102d1400144278000442420004407800d0e8b7002e
:102d24008500a9000080fa003400f9004f02be00bb
:102d34004f007800004006000800fa00644180005b
:102d4400e10f520003003a0000c2eb00044f780088
:102d5400a200370064418000e20f520004003a00f0
:102d640074c0b3000440780001e8b7009b0037004a
:102d740064418000e30f520019003a0014802000df
:102d8400144278000482fb0064026200e00f5200e7
:102d940003003200a4c2b300044f780002003700dd
:102da40054c1b300044f780014802000144278000a
:102db400e04f5200060032001480200014427800d4
:102dc4000442e9000440780001e8b70083003700ba
:102dd40074c0b3000440780001e8b7007f003700f6
:102de40064418000e40f520019003a00148020006e
:102df400144278000482fb0064026200e00f520077
:102e04000300320084c3b300044f7800020037008b
:102e140074c0b300044f780014802000144278007a
:102e2400e04f520006003200148020001442780063
:102e34000442e9000440780001e8b7006700370065
:102e440074c0b3000440780001e8b70063003700a1
:102e540064418000e90f520003003a000042eb0095
:102e6400044f78005d0037007444800034079800f4
:102e7400be029000f41f2000048262003407980010
:102e84003e02900045a2de00340798003e02900006
:102e94007f02620034079800264180003741800099
:102ea4003e029000c222dd0004a7280004824200f2
:102eb4001402be000401be000600be0080f8070034
:102ec4000002be0014079800250798001e03900016
:102ed400ae0390006400200005002000840f53001e
:102ee400858f5b000400340064002000050020008e
:102ef40014079800250798001408a9001e029000e2
:102f0400ae0290006600200007002000860f5200e9
:102f1400878f5a0025003e00046001001f0037001f
:102f24001b00370017003700130037000f0037006d
:102f34000b00370000003700f4c3b300044f7800df
:102f44001408a800c440800062026200e00f52002e
:102f54001500320004c8b3001e4f7200130037007e
:102f6400f4c9b300044f780010003700f4c0b30074
:102f7400044f78000d00370074c0b300044f78008c
:102f84000a00370034c0b300044f7800070037004c
:102f940014c0b300044f7800040037000042eb0073
:102fa400044f78000100370000000000d443800083
:102fb400f90f52000300340004c4b3001e4f720022
:102fc40006003700a440800062026200e00f520055
:102fd4000200320004c4b3001e4f72001e40780089
:102fe40000e8b7000080fa00000006000000fa00c4
:102ff4004480200014427800e04f520004003a005c
:10300400a4c0b3000440780004e8b7004aff0700f6
:103014000080fa00000006000200fa00004f780069
:103024000002eb00040388000002eb001403880094
:103034001e427800e14f520005003a000002eb0006
:10304400440388000002eb005403880004003700a6
:1030540024002000440388000002eb00540388008d
:1030640065058000f4ff280004826200640588007e
:103074008660a9009660a90054c0b300044078009b
:1030840030e8b7001468a9000080fa0000000600c8
:103094003400f800881f780008002000a801880088
:1030a4004f0478000000fa008660a9000080fa004e
:0830b4003400f90000400600a1
:020000040000fa
:1030bc0000080000d000000000000000d008000054
:1030cc000400000000000000d40800000200000012
:0830dc000000000000000000ec
:020000040000fa
:04aff8000fa900009d
:020000040000fa
:04affc00ff3d000015
:00000001FF
